{
  "contractName": "NzouaTokenSale",
  "abi": [
    {
      "inputs": [
        {
          "internalType": "contract NzouaToken",
          "name": "_tokenContract",
          "type": "address"
        },
        {
          "internalType": "uint256",
          "name": "_tokenPrice",
          "type": "uint256"
        }
      ],
      "stateMutability": "nonpayable",
      "type": "constructor"
    },
    {
      "anonymous": false,
      "inputs": [
        {
          "indexed": false,
          "internalType": "address",
          "name": "_buyer",
          "type": "address"
        },
        {
          "indexed": false,
          "internalType": "uint256",
          "name": "_amount",
          "type": "uint256"
        }
      ],
      "name": "Sell",
      "type": "event"
    },
    {
      "inputs": [],
      "name": "tokenContract",
      "outputs": [
        {
          "internalType": "contract NzouaToken",
          "name": "",
          "type": "address"
        }
      ],
      "stateMutability": "view",
      "type": "function",
      "constant": true
    },
    {
      "inputs": [],
      "name": "tokenPrice",
      "outputs": [
        {
          "internalType": "uint256",
          "name": "",
          "type": "uint256"
        }
      ],
      "stateMutability": "view",
      "type": "function",
      "constant": true
    },
    {
      "inputs": [],
      "name": "tokensSold",
      "outputs": [
        {
          "internalType": "uint256",
          "name": "",
          "type": "uint256"
        }
      ],
      "stateMutability": "view",
      "type": "function",
      "constant": true
    },
    {
      "inputs": [
        {
          "internalType": "uint256",
          "name": "_numberOfTokens",
          "type": "uint256"
        }
      ],
      "name": "buyTokens",
      "outputs": [],
      "stateMutability": "payable",
      "type": "function",
      "payable": true
    },
    {
      "inputs": [],
      "name": "getAdmin",
      "outputs": [
        {
          "internalType": "address",
          "name": "",
          "type": "address"
        }
      ],
      "stateMutability": "view",
      "type": "function",
      "constant": true
    }
  ],
  "bytecode": "0x608060405234801561001057600080fd5b506040516108ec3803806108ec8339818101604052810190610032919061016c565b336000806101000a81548173ffffffffffffffffffffffffffffffffffffffff021916908373ffffffffffffffffffffffffffffffffffffffff16021790555081600160006101000a81548173ffffffffffffffffffffffffffffffffffffffff021916908373ffffffffffffffffffffffffffffffffffffffff1602179055508060028190555050506101ac565b600080fd5b600073ffffffffffffffffffffffffffffffffffffffff82169050919050565b60006100f1826100c6565b9050919050565b6000610103826100e6565b9050919050565b610113816100f8565b811461011e57600080fd5b50565b6000815190506101308161010a565b92915050565b6000819050919050565b61014981610136565b811461015457600080fd5b50565b60008151905061016681610140565b92915050565b60008060408385031215610183576101826100c1565b5b600061019185828601610121565b92505060206101a285828601610157565b9150509250929050565b610731806101bb6000396000f3fe60806040526004361061004a5760003560e01c80633610724e1461004f578063518ab2a81461006b57806355a373d6146100965780636e9960c3146100c15780637ff9b596146100ec575b600080fd5b610069600480360381019061006491906103bf565b610117565b005b34801561007757600080fd5b506100806102f2565b60405161008d91906103fb565b60405180910390f35b3480156100a257600080fd5b506100ab6102f8565b6040516100b89190610495565b60405180910390f35b3480156100cd57600080fd5b506100d661031e565b6040516100e391906104d1565b60405180910390f35b3480156100f857600080fd5b50610101610347565b60405161010e91906103fb565b60405180910390f35b6101238160025461034d565b341461012e57600080fd5b80600160009054906101000a900473ffffffffffffffffffffffffffffffffffffffff1673ffffffffffffffffffffffffffffffffffffffff166370a08231306040518263ffffffff1660e01b815260040161018a91906104d1565b60206040518083038186803b1580156101a257600080fd5b505afa1580156101b6573d6000803e3d6000fd5b505050506040513d601f19601f820116820180604052508101906101da9190610501565b10156101e557600080fd5b600160009054906101000a900473ffffffffffffffffffffffffffffffffffffffff1673ffffffffffffffffffffffffffffffffffffffff1663a9059cbb33836040518363ffffffff1660e01b815260040161024292919061052e565b602060405180830381600087803b15801561025c57600080fd5b505af1158015610270573d6000803e3d6000fd5b505050506040513d601f19601f82011682018060405250810190610294919061058f565b61029d57600080fd5b80600360008282546102af91906105eb565b925050819055507f5e5e995ce3133561afceaa51a9a154d5db228cd7525d34df5185582c18d3df0933826040516102e792919061052e565b60405180910390a150565b60035481565b600160009054906101000a900473ffffffffffffffffffffffffffffffffffffffff1681565b60008060009054906101000a900473ffffffffffffffffffffffffffffffffffffffff16905090565b60025481565b6000808214806103755750828283856103669190610641565b92508261037391906106ca565b145b61037e57600080fd5b92915050565b600080fd5b6000819050919050565b61039c81610389565b81146103a757600080fd5b50565b6000813590506103b981610393565b92915050565b6000602082840312156103d5576103d4610384565b5b60006103e3848285016103aa565b91505092915050565b6103f581610389565b82525050565b600060208201905061041060008301846103ec565b92915050565b600073ffffffffffffffffffffffffffffffffffffffff82169050919050565b6000819050919050565b600061045b61045661045184610416565b610436565b610416565b9050919050565b600061046d82610440565b9050919050565b600061047f82610462565b9050919050565b61048f81610474565b82525050565b60006020820190506104aa6000830184610486565b92915050565b60006104bb82610416565b9050919050565b6104cb816104b0565b82525050565b60006020820190506104e660008301846104c2565b92915050565b6000815190506104fb81610393565b92915050565b60006020828403121561051757610516610384565b5b6000610525848285016104ec565b91505092915050565b600060408201905061054360008301856104c2565b61055060208301846103ec565b9392505050565b60008115159050919050565b61056c81610557565b811461057757600080fd5b50565b60008151905061058981610563565b92915050565b6000602082840312156105a5576105a4610384565b5b60006105b38482850161057a565b91505092915050565b7f4e487b7100000000000000000000000000000000000000000000000000000000600052601160045260246000fd5b60006105f682610389565b915061060183610389565b9250827fffffffffffffffffffffffffffffffffffffffffffffffffffffffffffffffff03821115610636576106356105bc565b5b828201905092915050565b600061064c82610389565b915061065783610389565b9250817fffffffffffffffffffffffffffffffffffffffffffffffffffffffffffffffff04831182151516156106905761068f6105bc565b5b828202905092915050565b7f4e487b7100000000000000000000000000000000000000000000000000000000600052601260045260246000fd5b60006106d582610389565b91506106e083610389565b9250826106f0576106ef61069b565b5b82820490509291505056fea2646970667358221220eacabcf477b5fa14be9ef302af4991debe90cc632e01b4ce3c73a78601b5ee5f64736f6c63430008090033",
  "immutableReferences": {},
  "source": "// Define the version of Solidity to use for this Smart Contract\n// SPDX-License-Identifier: MIT\npragma solidity >=0.7.0;\n\n// Import the ERC20 Token contract\nimport \"./NzouaToken.sol\";\n\n// Define your Smart Contract with the \"Contract\" keyword and an empty constructor\ncontract NzouaTokenSale {\n\n    // Declare an admin variable which will have super priviledge over the smart contract\n    address admin;\n\n    // Declaring the ERC20 token contract variable\n    NzouaToken public tokenContract;\n\n    // Declare tokenPrice state variable\n    uint256 public tokenPrice;\n\n    // Declaring a tokensSold variable\n    uint256 public tokensSold;\n\n    // Declaring the Sell() Event\n    event Sell(address _buyer, uint256 _amount);\n\n    constructor(NzouaToken _tokenContract, uint256 _tokenPrice) {\n\n        // Assign an admin, which is an external address that will have special\n        // priviledge other accounts won't have (e.g. End the token sale)\n        admin = msg.sender;\n\n        // Assign Token Contract to the crowd sale\n        tokenContract = _tokenContract;\n\n\n        // Set Token Price: How much Eth will it costs to sell our token\n        tokenPrice = _tokenPrice;\n    }\n\n        // This function will ensure a safe mathematical operation \n    // and prevent variable overflow\n    function multiply(uint x, uint y) internal pure returns(uint z){\n        require(y == 0 || (z = x * y) / y == x);\n    }\n\n    // Buying tokens. This function is payable \n    // because we want users to send ETH using this function\n    function buyTokens(uint256 _numberOfTokens) public payable{\n        // Require that the msg.value sent by the buyer \n        // is equal to the amount of NZT token they want to buy\n        require(msg.value == multiply(_numberOfTokens, tokenPrice));\n\n        // Require crowd sale contract to have enough token in balance\n        require(tokenContract.balanceOf(address(this)) >= _numberOfTokens);\n\n        // Require a successful transfer of tokens \n        require(tokenContract.transfer(msg.sender, _numberOfTokens));\n\n        // Keep track of tokensSold\n        tokensSold += _numberOfTokens;\n\n\n        // Emit/Trigger the Sell() event\n        emit Sell(msg.sender, _numberOfTokens);\n\n    }\n\n\n    // Function to get address of admin\n    function getAdmin() public view returns (address) {    \n        return admin;\n    }\n}\n",
  "sourcePath": "/Users/promid2015/Desktop/Code/Business/Nzouat/content/ERC20-Token/contracts/NzouaTokenSale.sol",
  "compiler": {
    "name": "solc",
    "version": "0.8.9+commit.e5eed63a.Emscripten.clang"
  },
  "schemaVersion": "3.4.3",
  "updatedAt": "2021-11-17T09:42:05.405Z",
  "networkType": "ethereum",
  "devdoc": {
    "kind": "dev",
    "methods": {},
    "version": 1
  },
  "userdoc": {
    "kind": "user",
    "methods": {},
    "version": 1
  }
}