{
  "contractName": "NzouaToken",
  "abi": [
    {
      "inputs": [],
      "stateMutability": "nonpayable",
      "type": "constructor"
    },
    {
      "inputs": [],
      "name": "totalSupply",
      "outputs": [
        {
          "internalType": "uint256",
          "name": "",
          "type": "uint256"
        }
      ],
      "stateMutability": "view",
      "type": "function",
      "constant": true
    }
  ],
  "bytecode": "0x608060405234801561001057600080fd5b50620f424060008190555060b3806100296000396000f3fe6080604052348015600f57600080fd5b506004361060285760003560e01c806318160ddd14602d575b600080fd5b60336047565b604051603e91906064565b60405180910390f35b60005481565b6000819050919050565b605e81604d565b82525050565b6000602082019050607760008301846057565b9291505056fea264697066735822122032b669ef254e6c0f62e43519875224b132dab34cef08241f84cd74c2e6eed24d64736f6c63430008090033",
  "immutableReferences": {},
  "source": "// Define the version of Solidity to use for this Smart Contract\n// SPDX-License-Identifier: MIT\npragma solidity >=0.7.0;\n\n// Define your Smart Contract with the \"Contract\" keyword and an empty constructor\ncontract NzouaToken {\n\n    uint256 public totalSupply;\n    constructor() {\n        totalSupply = 1000000; // 1 million Nzouat Tokens\n    }\n}\n",
  "sourcePath": "/Users/promid2015/Desktop/Code/Business/Nzouat/content/ERC20-Token/contracts/NzouaToken.sol",
  "compiler": {
    "name": "solc",
    "version": "0.8.9+commit.e5eed63a.Emscripten.clang"
  },
  "schemaVersion": "3.4.3",
  "updatedAt": "2021-11-10T13:25:32.681Z",
  "networkType": "ethereum",
  "devdoc": {
    "kind": "dev",
    "methods": {},
    "version": 1
  },
  "userdoc": {
    "kind": "user",
    "methods": {},
    "version": 1
  }
}